{
  "contractName": "HomeyContract",
  "abi": [
    {
      "inputs": [],
      "stateMutability": "payable",
      "type": "constructor",
      "payable": true
    },
    {
      "inputs": [
        {
          "internalType": "uint256",
          "name": "",
          "type": "uint256"
        }
      ],
      "name": "leaseContracts",
      "outputs": [
        {
          "internalType": "uint256",
          "name": "value",
          "type": "uint256"
        },
        {
          "internalType": "address payable",
          "name": "landlord",
          "type": "address"
        },
        {
          "internalType": "address payable",
          "name": "tenant",
          "type": "address"
        },
        {
          "internalType": "uint256",
          "name": "claimValue",
          "type": "uint256"
        },
        {
          "internalType": "uint256",
          "name": "propertyId",
          "type": "uint256"
        },
        {
          "internalType": "enum HomeyContract.State",
          "name": "state",
          "type": "uint8"
        }
      ],
      "stateMutability": "view",
      "type": "function",
      "constant": true
    },
    {
      "inputs": [
        {
          "internalType": "uint256",
          "name": "_value",
          "type": "uint256"
        },
        {
          "internalType": "address payable",
          "name": "_tenant",
          "type": "address"
        },
        {
          "internalType": "uint256",
          "name": "_propertyId",
          "type": "uint256"
        }
      ],
      "name": "createContract",
      "outputs": [],
      "stateMutability": "nonpayable",
      "type": "function"
    },
    {
      "inputs": [
        {
          "internalType": "uint256",
          "name": "_propertyId",
          "type": "uint256"
        },
        {
          "internalType": "address",
          "name": "_landlordAddress",
          "type": "address"
        }
      ],
      "name": "tenantAccept",
      "outputs": [],
      "stateMutability": "payable",
      "type": "function",
      "payable": true
    },
    {
      "inputs": [
        {
          "internalType": "uint256",
          "name": "_propertyId",
          "type": "uint256"
        }
      ],
      "name": "tenantTerminate",
      "outputs": [],
      "stateMutability": "nonpayable",
      "type": "function"
    },
    {
      "inputs": [
        {
          "internalType": "uint256",
          "name": "_propertyId",
          "type": "uint256"
        }
      ],
      "name": "requestDeposit",
      "outputs": [],
      "stateMutability": "nonpayable",
      "type": "function"
    },
    {
      "inputs": [
        {
          "internalType": "uint256",
          "name": "_propertyId",
          "type": "uint256"
        }
      ],
      "name": "releaseDeposit",
      "outputs": [],
      "stateMutability": "nonpayable",
      "type": "function"
    },
    {
      "inputs": [
        {
          "internalType": "uint256",
          "name": "_propertyId",
          "type": "uint256"
        },
        {
          "internalType": "uint256",
          "name": "_damageValue",
          "type": "uint256"
        }
      ],
      "name": "damageClaim",
      "outputs": [],
      "stateMutability": "nonpayable",
      "type": "function"
    }
  ],
  "bytecode": "0x608060405261152d806100136000396000f3fe6080604052600436106100705760003560e01c8063b43b2c7f1161004e578063b43b2c7f146100f0578063baa715cb14610132578063cd0ff66e1461014e578063e106bcf91461017757610070565b80630365eb68146100755780630d1e66671461009e578063a0f109c5146100c7575b600080fd5b34801561008157600080fd5b5061009c60048036038101906100979190610e89565b6101a0565b005b3480156100aa57600080fd5b506100c560048036038101906100c09190610edc565b61031c565b005b3480156100d357600080fd5b506100ee60048036038101906100e99190610edc565b61048f565b005b3480156100fc57600080fd5b5061011760048036038101906101129190610edc565b610693565b60405161012996959493929190610f9e565b60405180910390f35b61014c6004803603810190610147919061103d565b61071c565b005b34801561015a57600080fd5b506101756004803603810190610170919061107d565b610941565b005b34801561018357600080fd5b5061019e60048036038101906101999190610edc565b610bec565b005b60006040518060c00160405280670de0b6b3a7640000866101c191906110ec565b81526020013373ffffffffffffffffffffffffffffffffffffffff1681526020018473ffffffffffffffffffffffffffffffffffffffff168152602001600081526020018381526020016000600381111561021f5761021e610f27565b5b8152509050806000808481526020019081526020016000206000820151816000015560208201518160010160006101000a81548173ffffffffffffffffffffffffffffffffffffffff021916908373ffffffffffffffffffffffffffffffffffffffff16021790555060408201518160020160006101000a81548173ffffffffffffffffffffffffffffffffffffffff021916908373ffffffffffffffffffffffffffffffffffffffff160217905550606082015181600301556080820151816004015560a08201518160050160006101000a81548160ff0219169083600381111561030e5761030d610f27565b5b021790555090505050505050565b803373ffffffffffffffffffffffffffffffffffffffff1660008083815260200190815260200160002060020160009054906101000a900473ffffffffffffffffffffffffffffffffffffffff1673ffffffffffffffffffffffffffffffffffffffff16146103c0576040517f08c379a00000000000000000000000000000000000000000000000000000000081526004016103b7906111c9565b60405180910390fd5b8160018060038111156103d6576103d5610f27565b5b60008084815260200190815260200160002060050160009054906101000a900460ff16600381111561040b5761040a610f27565b5b1461044b576040517f08c379a00000000000000000000000000000000000000000000000000000000081526004016104429061125b565b60405180910390fd5b600260008086815260200190815260200160002060050160006101000a81548160ff0219169083600381111561048457610483610f27565b5b021790555050505050565b803373ffffffffffffffffffffffffffffffffffffffff1660008083815260200190815260200160002060010160009054906101000a900473ffffffffffffffffffffffffffffffffffffffff1673ffffffffffffffffffffffffffffffffffffffff1614610533576040517f08c379a000000000000000000000000000000000000000000000000000000000815260040161052a906112ed565b60405180910390fd5b81600280600381111561054957610548610f27565b5b60008084815260200190815260200160002060050160009054906101000a900460ff16600381111561057e5761057d610f27565b5b146105be576040517f08c379a00000000000000000000000000000000000000000000000000000000081526004016105b59061125b565b60405180910390fd5b60008085815260200190815260200160002060020160009054906101000a900473ffffffffffffffffffffffffffffffffffffffff1673ffffffffffffffffffffffffffffffffffffffff166108fc600080878152602001908152602001600020600001549081150290604051600060405180830381858888f1935050505015801561064e573d6000803e3d6000fd5b50600360008086815260200190815260200160002060050160006101000a81548160ff0219169083600381111561068857610687610f27565b5b021790555050505050565b60006020528060005260406000206000915090508060000154908060010160009054906101000a900473ffffffffffffffffffffffffffffffffffffffff16908060020160009054906101000a900473ffffffffffffffffffffffffffffffffffffffff16908060030154908060040154908060050160009054906101000a900460ff16905086565b818160008060008481526020019081526020016000206000015411610776576040517f08c379a000000000000000000000000000000000000000000000000000000000815260040161076d9061137f565b60405180910390fd5b8073ffffffffffffffffffffffffffffffffffffffff1660008084815260200190815260200160002060010160009054906101000a900473ffffffffffffffffffffffffffffffffffffffff1673ffffffffffffffffffffffffffffffffffffffff1614610819576040517f08c379a000000000000000000000000000000000000000000000000000000000815260040161081090611411565b60405180910390fd5b346000808481526020019081526020016000206000015414610870576040517f08c379a0000000000000000000000000000000000000000000000000000000008152600401610867906114a3565b60405180910390fd5b83600080600381111561088657610885610f27565b5b60008084815260200190815260200160002060050160009054906101000a900460ff1660038111156108bb576108ba610f27565b5b146108fb576040517f08c379a00000000000000000000000000000000000000000000000000000000081526004016108f29061125b565b60405180910390fd5b600160008088815260200190815260200160002060050160006101000a81548160ff0219169083600381111561093457610933610f27565b5b0217905550505050505050565b813373ffffffffffffffffffffffffffffffffffffffff1660008083815260200190815260200160002060010160009054906101000a900473ffffffffffffffffffffffffffffffffffffffff1673ffffffffffffffffffffffffffffffffffffffff16146109e5576040517f08c379a00000000000000000000000000000000000000000000000000000000081526004016109dc906112ed565b60405180910390fd5b8260028060038111156109fb576109fa610f27565b5b60008084815260200190815260200160002060050160009054906101000a900460ff166003811115610a3057610a2f610f27565b5b14610a70576040517f08c379a0000000000000000000000000000000000000000000000000000000008152600401610a679061125b565b60405180910390fd5b6000670de0b6b3a764000085610a8691906110ec565b905060008160008089815260200190815260200160002060000154610aab91906114c3565b905060008088815260200190815260200160002060010160009054906101000a900473ffffffffffffffffffffffffffffffffffffffff1673ffffffffffffffffffffffffffffffffffffffff166108fc839081150290604051600060405180830381858888f19350505050158015610b28573d6000803e3d6000fd5b50600360008089815260200190815260200160002060050160006101000a81548160ff02191690836003811115610b6257610b61610f27565b5b021790555060008088815260200190815260200160002060020160009054906101000a900473ffffffffffffffffffffffffffffffffffffffff1673ffffffffffffffffffffffffffffffffffffffff166108fc829081150290604051600060405180830381858888f19350505050158015610be2573d6000803e3d6000fd5b5050505050505050565b803373ffffffffffffffffffffffffffffffffffffffff1660008083815260200190815260200160002060020160009054906101000a900473ffffffffffffffffffffffffffffffffffffffff1673ffffffffffffffffffffffffffffffffffffffff1614610c90576040517f08c379a0000000000000000000000000000000000000000000000000000000008152600401610c87906111c9565b60405180910390fd5b816001806003811115610ca657610ca5610f27565b5b60008084815260200190815260200160002060050160009054906101000a900460ff166003811115610cdb57610cda610f27565b5b14610d1b576040517f08c379a0000000000000000000000000000000000000000000000000000000008152600401610d129061125b565b60405180910390fd5b60008085815260200190815260200160002060010160009054906101000a900473ffffffffffffffffffffffffffffffffffffffff1673ffffffffffffffffffffffffffffffffffffffff166108fc600080878152602001908152602001600020600001549081150290604051600060405180830381858888f19350505050158015610dab573d6000803e3d6000fd5b50600360008086815260200190815260200160002060050160006101000a81548160ff02191690836003811115610de557610de4610f27565b5b021790555050505050565b600080fd5b6000819050919050565b610e0881610df5565b8114610e1357600080fd5b50565b600081359050610e2581610dff565b92915050565b600073ffffffffffffffffffffffffffffffffffffffff82169050919050565b6000610e5682610e2b565b9050919050565b610e6681610e4b565b8114610e7157600080fd5b50565b600081359050610e8381610e5d565b92915050565b600080600060608486031215610ea257610ea1610df0565b5b6000610eb086828701610e16565b9350506020610ec186828701610e74565b9250506040610ed286828701610e16565b9150509250925092565b600060208284031215610ef257610ef1610df0565b5b6000610f0084828501610e16565b91505092915050565b610f1281610df5565b82525050565b610f2181610e4b565b82525050565b7f4e487b7100000000000000000000000000000000000000000000000000000000600052602160045260246000fd5b60048110610f6757610f66610f27565b5b50565b6000819050610f7882610f56565b919050565b6000610f8882610f6a565b9050919050565b610f9881610f7d565b82525050565b600060c082019050610fb36000830189610f09565b610fc06020830188610f18565b610fcd6040830187610f18565b610fda6060830186610f09565b610fe76080830185610f09565b610ff460a0830184610f8f565b979650505050505050565b600061100a82610e2b565b9050919050565b61101a81610fff565b811461102557600080fd5b50565b60008135905061103781611011565b92915050565b6000806040838503121561105457611053610df0565b5b600061106285828601610e16565b925050602061107385828601611028565b9150509250929050565b6000806040838503121561109457611093610df0565b5b60006110a285828601610e16565b92505060206110b385828601610e16565b9150509250929050565b7f4e487b7100000000000000000000000000000000000000000000000000000000600052601160045260246000fd5b60006110f782610df5565b915061110283610df5565b9250817fffffffffffffffffffffffffffffffffffffffffffffffffffffffffffffffff048311821515161561113b5761113a6110bd565b5b828202905092915050565b600082825260208201905092915050565b7f496e76616c69642070726f7065727479204944206f7220796f7520617265206e60008201527f6f74207468652074656e616e7400000000000000000000000000000000000000602082015250565b60006111b3602d83611146565b91506111be82611157565b604082019050919050565b600060208201905081810360008301526111e2816111a6565b9050919050565b7f5468697320616374696f6e2063616e6e6f74206265206578656375746564206160008201527f742063757272656e742073746167650000000000000000000000000000000000602082015250565b6000611245602f83611146565b9150611250826111e9565b604082019050919050565b6000602082019050818103600083015261127481611238565b9050919050565b7f496e76616c69642070726f7065727479204944206f7220796f7520617265206e60008201527f6f7420746865206c616e646c6f72640000000000000000000000000000000000602082015250565b60006112d7602f83611146565b91506112e28261127b565b604082019050919050565b60006020820190508181036000830152611306816112ca565b9050919050565b7f50726f7065727479206c6561736520636f6e7472616374206e6f7420666f756e60008201527f6400000000000000000000000000000000000000000000000000000000000000602082015250565b6000611369602183611146565b91506113748261130d565b604082019050919050565b600060208201905081810360008301526113988161135c565b9050919050565b7f54656e616e742077616c6c65742061646472657373206973206e6f742074686560008201527f2073616d6520617320696e64696361746564206279206c616e646c6f72640000602082015250565b60006113fb603e83611146565b91506114068261139f565b604082019050919050565b6000602082019050818103600083015261142a816113ee565b9050919050565b7f4465706f73697420616d6f756e74206973206e6f74207468652073616d65206160008201527f7320696e64696361746564206279206c616e646c6f7264000000000000000000602082015250565b600061148d603783611146565b915061149882611431565b604082019050919050565b600060208201905081810360008301526114bc81611480565b9050919050565b60006114ce82610df5565b91506114d983610df5565b9250828210156114ec576114eb6110bd565b5b82820390509291505056fea264697066735822122076569e5de547c81d3064648407e467c7a55bbb13780a3731136826cf544b08ac64736f6c634300080b0033",
  "immutableReferences": {},
  "source": "// SPDX-License-Identifier: MIT\r\npragma solidity ^0.8.11;\r\n\r\ncontract HomeyContract {\r\n    enum State {\r\n        Created,\r\n        Active,\r\n        Pending,\r\n        Inactive\r\n    }\r\n\r\n    struct Lease {\r\n        uint256 value;\r\n        address payable landlord;\r\n        address payable tenant;\r\n        uint256 claimValue;\r\n        uint256 propertyId;\r\n        State state;\r\n    }\r\n\r\n    mapping(uint256 => Lease) public leaseContracts;\r\n\r\n    constructor() payable {\r\n        // landlord = payable(msg.sender);\r\n        // value = msg.value;\r\n    }\r\n\r\n    modifier isContract(uint256 _propertyId, address _landlordAddress) {\r\n        require(\r\n            leaseContracts[_propertyId].value > 0 ,\r\n            \"Property lease contract not found\"\r\n        );\r\n\r\n        require(\r\n            leaseContracts[_propertyId].landlord == _landlordAddress,\r\n            \"Tenant wallet address is not the same as indicated by landlord\"\r\n        );\r\n\r\n        require(\r\n            leaseContracts[_propertyId].value == msg.value,\r\n            \"Deposit amount is not the same as indicated by landlord\"\r\n        );\r\n\r\n        _;\r\n    }\r\n\r\n    modifier isTenant(uint256 _propertyId) {\r\n        require(\r\n            leaseContracts[_propertyId].tenant == msg.sender,\r\n            \"Invalid property ID or you are not the tenant\"\r\n        );\r\n        _;\r\n    }\r\n\r\n    modifier isLandlord(uint256 _propertyId) {\r\n        require(\r\n            leaseContracts[_propertyId].landlord == msg.sender,\r\n            \"Invalid property ID or you are not the landlord\"\r\n        );\r\n        _;\r\n    }\r\n\r\n    modifier inState(uint256 _propertyId, State state_) {\r\n        require(\r\n            leaseContracts[_propertyId].state == state_,\r\n            \"This action cannot be executed at current stage\"\r\n        );\r\n        _;\r\n    }\r\n\r\n    function createContract(\r\n        uint256 _value,\r\n        address payable _tenant,\r\n        uint256 _propertyId\r\n    ) external {\r\n        // value = msg.value;\r\n\r\n        Lease memory lease = Lease({\r\n            value: (_value * 10**18),\r\n            landlord: payable(msg.sender),\r\n            tenant: _tenant,\r\n            claimValue: 0,\r\n            propertyId: _propertyId,\r\n            state: State.Created\r\n        });\r\n        leaseContracts[_propertyId] = lease;\r\n    }\r\n\r\n    function tenantAccept(uint256 _propertyId, address _landlordAddress)\r\n        external\r\n        payable\r\n        isContract(_propertyId, _landlordAddress)\r\n        inState(_propertyId, State.Created)\r\n    {\r\n        leaseContracts[_propertyId].state = State.Active;\r\n    }\r\n\r\n    function tenantTerminate(uint256 _propertyId)\r\n        external\r\n        isTenant(_propertyId)\r\n        inState(_propertyId, State.Active)\r\n    {\r\n        leaseContracts[_propertyId].landlord.transfer(\r\n            leaseContracts[_propertyId].value\r\n        );\r\n        leaseContracts[_propertyId].state = State.Inactive;\r\n    }\r\n\r\n    function requestDeposit(uint256 _propertyId)\r\n        external\r\n        isTenant(_propertyId)\r\n        inState(_propertyId, State.Active)\r\n    {\r\n        leaseContracts[_propertyId].state = State.Pending;\r\n        // tenant.transfer(value);\r\n    }\r\n\r\n    function releaseDeposit(uint256 _propertyId)\r\n        external\r\n        isLandlord(_propertyId)\r\n        inState(_propertyId, State.Pending)\r\n    {\r\n        leaseContracts[_propertyId].tenant.transfer(leaseContracts[_propertyId].value);\r\n        leaseContracts[_propertyId].state = State.Inactive;\r\n    }\r\n\r\n    function damageClaim(uint256 _propertyId, uint256 _damageValue)\r\n        external\r\n        isLandlord(_propertyId)\r\n        inState(_propertyId, State.Pending)\r\n    {\r\n        uint256 _claimValue = (_damageValue * 10**18);\r\n        uint256 remainingDeposit = leaseContracts[_propertyId].value -\r\n            (_claimValue);\r\n        leaseContracts[_propertyId].landlord.transfer(_claimValue);\r\n        leaseContracts[_propertyId].state = State.Inactive;\r\n        leaseContracts[_propertyId].tenant.transfer(remainingDeposit);\r\n    }\r\n}\r\n\r\n/// The function cannot be called at the current state.\r\nerror InvalidState();\r\n///  Ony the tenant can call this function\r\nerror OnlyTenant();\r\n///  Ony the landlord can call this function\r\nerror OnlyLandlord();",
  "sourcePath": "C:\\Users\\w.lee\\OneDrive\\Desktop\\smartcontracts\\rentaldeposit\\contract\\contracts\\HomeyContract.sol",
  "compiler": {
    "name": "solc",
    "version": "0.8.11+commit.d7f03943.Emscripten.clang"
  },
  "schemaVersion": "3.4.10",
  "updatedAt": "2022-11-03T16:11:25.560Z",
  "networkType": "ethereum",
  "devdoc": {
    "kind": "dev",
    "methods": {},
    "version": 1
  },
  "userdoc": {
    "kind": "user",
    "methods": {},
    "version": 1
  }
}