{
  "contractName": "RentalDeposit",
  "abi": [
    {
      "inputs": [],
      "stateMutability": "payable",
      "type": "constructor"
    },
    {
      "inputs": [],
      "name": "InvalidState",
      "type": "error"
    },
    {
      "inputs": [],
      "name": "OnlyLandlord",
      "type": "error"
    },
    {
      "inputs": [],
      "name": "OnlyTenant",
      "type": "error"
    },
    {
      "inputs": [],
      "name": "_claimValue",
      "outputs": [
        {
          "internalType": "uint256",
          "name": "",
          "type": "uint256"
        }
      ],
      "stateMutability": "view",
      "type": "function"
    },
    {
      "inputs": [],
      "name": "landlord",
      "outputs": [
        {
          "internalType": "address payable",
          "name": "",
          "type": "address"
        }
      ],
      "stateMutability": "view",
      "type": "function"
    },
    {
      "inputs": [],
      "name": "remainingDeposit",
      "outputs": [
        {
          "internalType": "uint256",
          "name": "",
          "type": "uint256"
        }
      ],
      "stateMutability": "view",
      "type": "function"
    },
    {
      "inputs": [],
      "name": "state",
      "outputs": [
        {
          "internalType": "enum RentalDeposit.State",
          "name": "",
          "type": "uint8"
        }
      ],
      "stateMutability": "view",
      "type": "function"
    },
    {
      "inputs": [],
      "name": "tenant",
      "outputs": [
        {
          "internalType": "address payable",
          "name": "",
          "type": "address"
        }
      ],
      "stateMutability": "view",
      "type": "function"
    },
    {
      "inputs": [],
      "name": "value",
      "outputs": [
        {
          "internalType": "uint256",
          "name": "",
          "type": "uint256"
        }
      ],
      "stateMutability": "view",
      "type": "function"
    },
    {
      "inputs": [],
      "name": "tenantOffer",
      "outputs": [],
      "stateMutability": "payable",
      "type": "function"
    },
    {
      "inputs": [],
      "name": "landlordAccept",
      "outputs": [],
      "stateMutability": "nonpayable",
      "type": "function"
    },
    {
      "inputs": [],
      "name": "tenantTerminate",
      "outputs": [],
      "stateMutability": "nonpayable",
      "type": "function"
    },
    {
      "inputs": [],
      "name": "releaseDepositToTenant",
      "outputs": [],
      "stateMutability": "nonpayable",
      "type": "function"
    },
    {
      "inputs": [
        {
          "internalType": "uint256",
          "name": "_damageValue",
          "type": "uint256"
        }
      ],
      "name": "damageClaim",
      "outputs": [],
      "stateMutability": "nonpayable",
      "type": "function"
    }
  ],
  "bytecode": "0x608060405233600160006101000a81548173ffffffffffffffffffffffffffffffffffffffff021916908373ffffffffffffffffffffffffffffffffffffffff160217905550610c21806100546000396000f3fe60806040526004361061009c5760003560e01c806398976094116100645780639897609414610155578063adf077911461016c578063bb06922514610197578063c19d93fb146101ae578063dc1997ea146101d9578063fb531a4f146102045761009c565b8063046b75fb146100a15780631caed6d4146100cc5780633fa4f245146100d6578063546eab0b14610101578063758c6dbf1461012a575b600080fd5b3480156100ad57600080fd5b506100b661021b565b6040516100c391906109c7565b60405180910390f35b6100d4610221565b005b3480156100e257600080fd5b506100eb610305565b6040516100f891906109c7565b60405180910390f35b34801561010d57600080fd5b5061012860048036038101906101239190610a13565b61030b565b005b34801561013657600080fd5b5061013f61050a565b60405161014c91906109c7565b60405180910390f35b34801561016157600080fd5b5061016a610510565b005b34801561017857600080fd5b5061018161069e565b60405161018e9190610a81565b60405180910390f35b3480156101a357600080fd5b506101ac6106c4565b005b3480156101ba57600080fd5b506101c3610852565b6040516101d09190610b13565b60405180910390f35b3480156101e557600080fd5b506101ee610865565b6040516101fb9190610a81565b60405180910390f35b34801561021057600080fd5b5061021961088b565b005b60035481565b600080600381111561023657610235610a9c565b5b600560009054906101000a900460ff16600381111561025857610257610a9c565b5b1461028f576040517fbaf3f0f700000000000000000000000000000000000000000000000000000000815260040160405180910390fd5b3460008190555033600260006101000a81548173ffffffffffffffffffffffffffffffffffffffff021916908373ffffffffffffffffffffffffffffffffffffffff1602179055506001600560006101000a81548160ff021916908360038111156102fd576102fc610a9c565b5b021790555050565b60005481565b600160009054906101000a900473ffffffffffffffffffffffffffffffffffffffff1673ffffffffffffffffffffffffffffffffffffffff163373ffffffffffffffffffffffffffffffffffffffff1614610392576040517f6dd80efb00000000000000000000000000000000000000000000000000000000815260040160405180910390fd5b60028060038111156103a7576103a6610a9c565b5b600560009054906101000a900460ff1660038111156103c9576103c8610a9c565b5b14610400576040517fbaf3f0f700000000000000000000000000000000000000000000000000000000815260040160405180910390fd5b670de0b6b3a7640000826104149190610b5d565b60038190555060035460005461042a9190610bb7565b600481905550600160009054906101000a900473ffffffffffffffffffffffffffffffffffffffff1673ffffffffffffffffffffffffffffffffffffffff166108fc6003549081150290604051600060405180830381858888f1935050505015801561049a573d6000803e3d6000fd5b50600260009054906101000a900473ffffffffffffffffffffffffffffffffffffffff1673ffffffffffffffffffffffffffffffffffffffff166108fc6004549081150290604051600060405180830381858888f19350505050158015610505573d6000803e3d6000fd5b505050565b60045481565b600260009054906101000a900473ffffffffffffffffffffffffffffffffffffffff1673ffffffffffffffffffffffffffffffffffffffff163373ffffffffffffffffffffffffffffffffffffffff1614610597576040517f873cf48b00000000000000000000000000000000000000000000000000000000815260040160405180910390fd5b60028060038111156105ac576105ab610a9c565b5b600560009054906101000a900460ff1660038111156105ce576105cd610a9c565b5b14610605576040517fbaf3f0f700000000000000000000000000000000000000000000000000000000815260040160405180910390fd5b600160009054906101000a900473ffffffffffffffffffffffffffffffffffffffff1673ffffffffffffffffffffffffffffffffffffffff166108fc6000549081150290604051600060405180830381858888f1935050505015801561066f573d6000803e3d6000fd5b506003600560006101000a81548160ff0219169083600381111561069657610695610a9c565b5b021790555050565b600260009054906101000a900473ffffffffffffffffffffffffffffffffffffffff1681565b600160009054906101000a900473ffffffffffffffffffffffffffffffffffffffff1673ffffffffffffffffffffffffffffffffffffffff163373ffffffffffffffffffffffffffffffffffffffff161461074b576040517f6dd80efb00000000000000000000000000000000000000000000000000000000815260040160405180910390fd5b60028060038111156107605761075f610a9c565b5b600560009054906101000a900460ff16600381111561078257610781610a9c565b5b146107b9576040517fbaf3f0f700000000000000000000000000000000000000000000000000000000815260040160405180910390fd5b6003600560006101000a81548160ff021916908360038111156107df576107de610a9c565b5b0217905550600260009054906101000a900473ffffffffffffffffffffffffffffffffffffffff1673ffffffffffffffffffffffffffffffffffffffff166108fc6000549081150290604051600060405180830381858888f1935050505015801561084e573d6000803e3d6000fd5b5050565b600560009054906101000a900460ff1681565b600160009054906101000a900473ffffffffffffffffffffffffffffffffffffffff1681565b600160009054906101000a900473ffffffffffffffffffffffffffffffffffffffff1673ffffffffffffffffffffffffffffffffffffffff163373ffffffffffffffffffffffffffffffffffffffff1614610912576040517f6dd80efb00000000000000000000000000000000000000000000000000000000815260040160405180910390fd5b600180600381111561092757610926610a9c565b5b600560009054906101000a900460ff16600381111561094957610948610a9c565b5b14610980576040517fbaf3f0f700000000000000000000000000000000000000000000000000000000815260040160405180910390fd5b6002600560006101000a81548160ff021916908360038111156109a6576109a5610a9c565b5b021790555050565b6000819050919050565b6109c1816109ae565b82525050565b60006020820190506109dc60008301846109b8565b92915050565b600080fd5b6109f0816109ae565b81146109fb57600080fd5b50565b600081359050610a0d816109e7565b92915050565b600060208284031215610a2957610a286109e2565b5b6000610a37848285016109fe565b91505092915050565b600073ffffffffffffffffffffffffffffffffffffffff82169050919050565b6000610a6b82610a40565b9050919050565b610a7b81610a60565b82525050565b6000602082019050610a966000830184610a72565b92915050565b7f4e487b7100000000000000000000000000000000000000000000000000000000600052602160045260246000fd5b60048110610adc57610adb610a9c565b5b50565b6000819050610aed82610acb565b919050565b6000610afd82610adf565b9050919050565b610b0d81610af2565b82525050565b6000602082019050610b286000830184610b04565b92915050565b7f4e487b7100000000000000000000000000000000000000000000000000000000600052601160045260246000fd5b6000610b68826109ae565b9150610b73836109ae565b9250817fffffffffffffffffffffffffffffffffffffffffffffffffffffffffffffffff0483118215151615610bac57610bab610b2e565b5b828202905092915050565b6000610bc2826109ae565b9150610bcd836109ae565b925082821015610be057610bdf610b2e565b5b82820390509291505056fea264697066735822122054405dda5ecc54802d75d6390e736b215591d2c90585d4aacd00fd7d33d7fbac64736f6c634300080b0033",
  "immutableReferences": {},
  "source": "// SPDX-License-Identifier: MIT\r\npragma solidity ^0.8.11;\r\n\r\ncontract RentalDeposit {\r\n    uint256 public value;\r\n    address payable public landlord;\r\n    address payable public tenant;\r\n    uint256 public _claimValue;\r\n    uint256 public remainingDeposit;\r\n\r\n    enum State {\r\n        Created,\r\n        TenantOffered,\r\n        LandlordAccepted,\r\n        Inactive\r\n    }\r\n    State public state;\r\n\r\n    constructor() payable {\r\n        landlord = payable(msg.sender);\r\n        // value = msg.value;\r\n    }\r\n\r\n    modifier onlyTenant() {\r\n        if (msg.sender != tenant) {\r\n            revert OnlyTenant();\r\n        }\r\n        _;\r\n    }\r\n    modifier onlyLandlord() {\r\n        if (msg.sender != landlord) {\r\n            revert OnlyLandlord();\r\n        }\r\n        _;\r\n    }\r\n    modifier inState(State state_) {\r\n        if (state != state_) {\r\n            revert InvalidState();\r\n        }\r\n        _;\r\n    }\r\n    \r\n    function tenantOffer() external payable inState(State.Created) {\r\n        value = msg.value;\r\n        tenant = payable(msg.sender);\r\n        state = State.TenantOffered;\r\n    }\r\n    function landlordAccept() external onlyLandlord inState(State.TenantOffered) {\r\n        state = State.LandlordAccepted;\r\n    }\r\n    function tenantTerminate() external onlyTenant inState(State.LandlordAccepted) {\r\n        landlord.transfer(value);\r\n        state = State.Inactive;\r\n    }\r\n    // function landlordTerminate() external onlyLandlord inState(State.LandlordAccepted) {\r\n    //     tenant.transfer(value);\r\n    //     state = State.Inactive;\r\n    // }\r\n    function releaseDepositToTenant() external onlyLandlord inState(State.LandlordAccepted) {\r\n        state = State.Inactive;\r\n        tenant.transfer(value);\r\n    }\r\n    function damageClaim(uint256 _damageValue) external onlyLandlord inState(State.LandlordAccepted) {\r\n        _claimValue = (_damageValue * 10**18);\r\n        remainingDeposit = value - (_claimValue);\r\n        landlord.transfer(_claimValue);\r\n        tenant.transfer(remainingDeposit);\r\n    }\r\n}\r\n\r\n/// The function cannot be called at the current state.\r\nerror InvalidState();\r\n///  Ony the tenant can call this function\r\nerror OnlyTenant();\r\n///  Ony the landlord can call this function\r\nerror OnlyLandlord();\r\n",
  "sourcePath": "C:\\Users\\w.lee\\OneDrive\\Desktop\\smartcontract\\rentaldeposit2\\contract\\contracts\\RentalDeposit.sol",
  "compiler": {
    "name": "solc",
    "version": "0.8.11+commit.d7f03943.Emscripten.clang"
  },
  "schemaVersion": "3.4.10",
  "updatedAt": "2022-10-16T07:37:21.666Z",
  "devdoc": {
    "kind": "dev",
    "methods": {},
    "version": 1
  },
  "userdoc": {
    "errors": {
      "InvalidState()": [
        {
          "notice": "The function cannot be called at the current state."
        }
      ],
      "OnlyLandlord()": [
        {
          "notice": "Ony the landlord can call this function"
        }
      ],
      "OnlyTenant()": [
        {
          "notice": "Ony the tenant can call this function"
        }
      ]
    },
    "kind": "user",
    "methods": {},
    "version": 1
  }
}